{
  "_format": "hh-sol-artifact-1",
  "contractName": "ConfidentialMarketV2",
  "sourceName": "contracts/ConfidentialMarketV2.sol",
  "abi": [
    {
      "inputs": [],
      "stateMutability": "nonpayable",
      "type": "constructor"
    },
    {
      "anonymous": false,
      "inputs": [
        {
          "indexed": true,
          "internalType": "uint256",
          "name": "marketId",
          "type": "uint256"
        },
        {
          "indexed": true,
          "internalType": "address",
          "name": "better",
          "type": "address"
        }
      ],
      "name": "BetPlaced",
      "type": "event"
    },
    {
      "anonymous": false,
      "inputs": [
        {
          "indexed": true,
          "internalType": "uint256",
          "name": "marketId",
          "type": "uint256"
        },
        {
          "indexed": false,
          "internalType": "string",
          "name": "question",
          "type": "string"
        },
        {
          "indexed": false,
          "internalType": "uint256",
          "name": "endTime",
          "type": "uint256"
        }
      ],
      "name": "MarketCreated",
      "type": "event"
    },
    {
      "anonymous": false,
      "inputs": [
        {
          "indexed": true,
          "internalType": "uint256",
          "name": "marketId",
          "type": "uint256"
        },
        {
          "indexed": false,
          "internalType": "bool",
          "name": "outcome",
          "type": "bool"
        }
      ],
      "name": "MarketResolved",
      "type": "event"
    },
    {
      "inputs": [
        {
          "internalType": "string",
          "name": "question",
          "type": "string"
        },
        {
          "internalType": "uint256",
          "name": "duration",
          "type": "uint256"
        }
      ],
      "name": "createMarket",
      "outputs": [
        {
          "internalType": "uint256",
          "name": "",
          "type": "uint256"
        }
      ],
      "stateMutability": "nonpayable",
      "type": "function"
    },
    {
      "inputs": [
        {
          "internalType": "uint256",
          "name": "",
          "type": "uint256"
        }
      ],
      "name": "encryptedBets",
      "outputs": [
        {
          "internalType": "euint64",
          "name": "yesVotes",
          "type": "bytes32"
        },
        {
          "internalType": "euint64",
          "name": "noVotes",
          "type": "bytes32"
        }
      ],
      "stateMutability": "view",
      "type": "function"
    },
    {
      "inputs": [
        {
          "internalType": "uint256",
          "name": "marketId",
          "type": "uint256"
        }
      ],
      "name": "getMarket",
      "outputs": [
        {
          "internalType": "euint64",
          "name": "",
          "type": "bytes32"
        },
        {
          "internalType": "euint64",
          "name": "",
          "type": "bytes32"
        }
      ],
      "stateMutability": "view",
      "type": "function"
    },
    {
      "inputs": [
        {
          "internalType": "uint256",
          "name": "marketId",
          "type": "uint256"
        }
      ],
      "name": "getMarketInfo",
      "outputs": [
        {
          "internalType": "string",
          "name": "question",
          "type": "string"
        },
        {
          "internalType": "uint256",
          "name": "endTime",
          "type": "uint256"
        },
        {
          "internalType": "bool",
          "name": "resolved",
          "type": "bool"
        },
        {
          "internalType": "bool",
          "name": "outcome",
          "type": "bool"
        },
        {
          "internalType": "uint256",
          "name": "totalParticipants",
          "type": "uint256"
        }
      ],
      "stateMutability": "view",
      "type": "function"
    },
    {
      "inputs": [
        {
          "internalType": "uint256",
          "name": "",
          "type": "uint256"
        },
        {
          "internalType": "address",
          "name": "",
          "type": "address"
        }
      ],
      "name": "hasVoted",
      "outputs": [
        {
          "internalType": "bool",
          "name": "",
          "type": "bool"
        }
      ],
      "stateMutability": "view",
      "type": "function"
    },
    {
      "inputs": [],
      "name": "marketCounter",
      "outputs": [
        {
          "internalType": "uint256",
          "name": "",
          "type": "uint256"
        }
      ],
      "stateMutability": "view",
      "type": "function"
    },
    {
      "inputs": [
        {
          "internalType": "uint256",
          "name": "",
          "type": "uint256"
        }
      ],
      "name": "markets",
      "outputs": [
        {
          "internalType": "string",
          "name": "question",
          "type": "string"
        },
        {
          "internalType": "uint256",
          "name": "endTime",
          "type": "uint256"
        },
        {
          "internalType": "bool",
          "name": "resolved",
          "type": "bool"
        },
        {
          "internalType": "bool",
          "name": "outcome",
          "type": "bool"
        },
        {
          "internalType": "uint256",
          "name": "totalParticipants",
          "type": "uint256"
        }
      ],
      "stateMutability": "view",
      "type": "function"
    },
    {
      "inputs": [],
      "name": "owner",
      "outputs": [
        {
          "internalType": "address",
          "name": "",
          "type": "address"
        }
      ],
      "stateMutability": "view",
      "type": "function"
    },
    {
      "inputs": [
        {
          "internalType": "uint256",
          "name": "marketId",
          "type": "uint256"
        },
        {
          "internalType": "externalEuint32",
          "name": "encryptedOption",
          "type": "bytes32"
        },
        {
          "internalType": "bytes",
          "name": "inputProof",
          "type": "bytes"
        }
      ],
      "name": "placeBet",
      "outputs": [],
      "stateMutability": "nonpayable",
      "type": "function"
    },
    {
      "inputs": [],
      "name": "protocolId",
      "outputs": [
        {
          "internalType": "uint256",
          "name": "",
          "type": "uint256"
        }
      ],
      "stateMutability": "pure",
      "type": "function"
    },
    {
      "inputs": [
        {
          "internalType": "uint256",
          "name": "marketId",
          "type": "uint256"
        },
        {
          "internalType": "bool",
          "name": "outcome",
          "type": "bool"
        }
      ],
      "name": "resolveMarket",
      "outputs": [],
      "stateMutability": "nonpayable",
      "type": "function"
    },
    {
      "inputs": [
        {
          "internalType": "address",
          "name": "newOwner",
          "type": "address"
        }
      ],
      "name": "transferOwnership",
      "outputs": [],
      "stateMutability": "nonpayable",
      "type": "function"
    }
  ],
  "bytecode": "0x608060405234801561001057600080fd5b5061018c6100b0604080516080810182526000808252602082018190529181018290526060810191909152506040805160808101825273687820221192c5b662b25367f70076a37bc79b6c815273848b0066793bcc60346da1f49049357399b8d595602082015273a02cda4ca3a71d7c46997716f4283aa851c2881291810191909152731364cbbf2cdf5032c47d8226a6f6fbd2afcdacac606082015290565b80517f9e7b61f58c47dc699ac88507c4f5bb9f121c03808c5676a8078fe583e464970080546001600160a01b03199081166001600160a01b039384161790915560208301517f9e7b61f58c47dc699ac88507c4f5bb9f121c03808c5676a8078fe583e46497018054831691841691909117905560408301517f9e7b61f58c47dc699ac88507c4f5bb9f121c03808c5676a8078fe583e46497028054831691841691909117905560608301517f9e7b61f58c47dc699ac88507c4f5bb9f121c03808c5676a8078fe583e46497038054909216921691909117905550565b600080546001600160a01b0319163317905561152a806101ad6000396000f3fe608060405234801561001057600080fd5b50600436106100b45760003560e01c80638da5cb5b116100715780638da5cb5b14610172578063b1283e771461019d578063da1f12ab146101b0578063e2b5a74b146101b8578063eb44fdd3146101f4578063f2fde38b1461020757600080fd5b806324760807146100b95780633ec79193146100d557806343859632146100f957806357bde44614610137578063883c84c11461014c5780638c87e4641461015f575b600080fd5b6100c260015481565b6040519081526020015b60405180910390f35b6100e86100e3366004610fca565b61021a565b6040516100cc959493929190611029565b61012761010736600461107c565b600460209081526000928352604080842090915290825290205460ff1681565b60405190151581526020016100cc565b61014a6101453660046110a8565b610321565b005b6100c261015a366004611126565b610494565b61014a61016d366004611172565b610682565b600054610185906001600160a01b031681565b6040516001600160a01b0390911681526020016100cc565b6100e86101ab366004610fca565b61091f565b6127116100c2565b6101df6101c6366004610fca565b6002602052600090815260409020805460019091015482565b604080519283526020830191909152016100cc565b6101df610202366004610fca565b6109df565b61014a6102153660046111c5565b610a21565b606060008060008085600154811061024d5760405162461bcd60e51b8152600401610244906111e0565b60405180910390fd5b6000878152600360208190526040909120600181015460028201549282015482549293849360ff80831693610100909304169190859061028c9061120f565b80601f01602080910402602001604051908101604052809291908181526020018280546102b89061120f565b80156103055780601f106102da57610100808354040283529160200191610305565b820191906000526020600020905b8154815290600101906020018083116102e857829003601f168201915b5050505050945096509650965096509650505091939590929450565b6000546001600160a01b0316331461034b5760405162461bcd60e51b815260040161024490611249565b81600154811061036d5760405162461bcd60e51b8152600401610244906111e0565b6000838152600360205260409020600101544210156103ce5760405162461bcd60e51b815260206004820152601860248201527f4d61726b657420686173206e6f7420656e6465642079657400000000000000006044820152606401610244565b60008381526003602052604090206002015460ff161561042a5760405162461bcd60e51b815260206004820152601760248201527613585c9ad95d08185b1c9958591e481c995cdbdb1d9959604a1b6044820152606401610244565b6000838152600360205260409081902060020180548415156101000261ffff199091161760011790555183907f4927fe38919783250023d27e65a3e56b6b5c3e49364e51674a41ef08d62460d99061048790851515815260200190565b60405180910390a2505050565b600080546001600160a01b031633146104bf5760405162461bcd60e51b815260040161024490611249565b6000821161050f5760405162461bcd60e51b815260206004820152601960248201527f4475726174696f6e206d75737420626520706f736974697665000000000000006044820152606401610244565b8261055c5760405162461bcd60e51b815260206004820152601860248201527f5175657374696f6e2063616e6e6f7420626520656d70747900000000000000006044820152606401610244565b600180546000918261056d836112a0565b909155509050600061057f84426112b9565b6040805160c06020601f8a01819004028201810190925260a0810188815292935091829189908990819085018382808284376000920182905250938552505050602080830185905260408084018390526060840183905260809093018290528582526003905220815181906105f49082611333565b5060208201516001820155604080830151600283018054606086015115156101000261ff00199315159390931661ffff19909116179190911790556080909201516003909101555182907f2d1e9ad45dbe8e898e0374deebf2a661b2ae7c1855d2a29507d584c35d287c759061066f908990899086906113f3565b60405180910390a25090505b9392505050565b8360015481106106a45760405162461bcd60e51b8152600401610244906111e0565b600085815260036020526040902060020154859060ff16156107025760405162461bcd60e51b815260206004820152601760248201527613585c9ad95d08185b1c9958591e481c995cdbdb1d9959604a1b6044820152606401610244565b60008181526003602052604090206001015442106107555760405162461bcd60e51b815260206004820152601060248201526f13585c9ad95d081a185cc8195b99195960821b6044820152606401610244565b600086815260046020908152604080832033845290915290205460ff16156107bf5760405162461bcd60e51b815260206004820152601c60248201527f416c726561647920766f746564206f6e2074686973206d61726b6574000000006044820152606401610244565b60006108018686868080601f016020809104026020016040519081016040528093929190818152602001838380828437600092019190915250610ac392505050565b905061080c81610ada565b50600061082a61081b83610aea565b6108256001610af7565b610b0e565b60008981526002602052604090208054919250906108649061085f846108506001610af7565b61085a6000610af7565b610b40565b610b55565b815560018101546108879061085f8461087d6000610af7565b61085a6001610af7565b6001820155805461089790610ada565b506108a58160010154610ada565b5060008981526004602090815260408083203384528252808320805460ff191660011790558b83526003918290528220018054916108e2836112a0565b909155505060405133908a907f71db8f0b94a6ae898ff1583920da121c8f18ea26ad96353276843685325262e190600090a3505050505050505050565b60036020526000908152604090208054819061093a9061120f565b80601f01602080910402602001604051908101604052809291908181526020018280546109669061120f565b80156109b35780601f10610988576101008083540402835291602001916109b3565b820191906000526020600020905b81548152906001019060200180831161099657829003601f168201915b505050600184015460028501546003909501549394909360ff8083169450610100909204909116915085565b600080826001548110610a045760405162461bcd60e51b8152600401610244906111e0565b505050600090815260026020526040902080546001909101549091565b6000546001600160a01b03163314610a4b5760405162461bcd60e51b815260040161024490611249565b6001600160a01b038116610aa15760405162461bcd60e51b815260206004820181905260248201527f4e6577206f776e65722063616e6e6f74206265207a65726f20616464726573736044820152606401610244565b600080546001600160a01b0319166001600160a01b0392909216919091179055565b6000610ad183836004610b87565b90505b92915050565b6000610ae68230610c8c565b5090565b6000610ad4826005610d09565b6000610ad48267ffffffffffffffff166005610d9e565b600082610b2257610b1f6000610af7565b92505b81610b3457610b316000610af7565b91505b610ad183836000610df0565b6000610b4d848484610eb4565b949350505050565b600082610b6957610b666000610af7565b92505b81610b7b57610b786000610af7565b91505b610ad183836000610f4f565b6000805160206114b58339815191525460405163196d0b9b60e01b81526000916000805160206114d5833981519152916001600160a01b039091169063196d0b9b90610bdd90889033908990899060040161144e565b6020604051808303816000875af1158015610bfc573d6000803e3d6000fd5b505050506040513d601f19601f82011682018060405250810190610c209190611487565b8154604051630f8e573b60e21b8152600481018390523360248201529193506001600160a01b031690633e395cec90604401600060405180830381600087803b158015610c6c57600080fd5b505af1158015610c80573d6000803e3d6000fd5b50505050509392505050565b60006000805160206114d58339815191528054604051635ca4b5b160e11b8152600481018690526001600160a01b03858116602483015292935091169063b9496b6290604401600060405180830381600087803b158015610cec57600080fd5b505af1158015610d00573d6000803e3d6000fd5b50505050505050565b6000805160206114b5833981519152546040516307227b9160e21b81526000916000805160206114d5833981519152916001600160a01b0390911690631c89ee4490610d5b90879087906004016114a0565b6020604051808303816000875af1158015610d7a573d6000803e3d6000fd5b505050506040513d601f19601f82011682018060405250810190610b4d9190611487565b6000805160206114b583398151915254604051639cd07acb60e01b81526000916000805160206114d5833981519152916001600160a01b0390911690639cd07acb90610d5b90879087906004016114a0565b6000808215610e045750600160f81b610e08565b5060005b6000805160206114b58339815191525460405163f77f3f1d60e01b815260048101879052602481018690526001600160f81b0319831660448201526000805160206114d5833981519152916001600160a01b03169063f77f3f1d906064015b6020604051808303816000875af1158015610e86573d6000803e3d6000fd5b505050506040513d601f19601f82011682018060405250810190610eaa9190611487565b9695505050505050565b6000806000805160206114d58339815191526001810154604051637702dcff60e01b81526004810188905260248101879052604481018690529192506001600160a01b031690637702dcff906064016020604051808303816000875af1158015610f22573d6000803e3d6000fd5b505050506040513d601f19601f82011682018060405250810190610f469190611487565b95945050505050565b6000808215610f635750600160f81b610f67565b5060005b6000805160206114b58339815191525460405163022f65e760e31b815260048101879052602481018690526001600160f81b0319831660448201526000805160206114d5833981519152916001600160a01b03169063117b2f3890606401610e67565b600060208284031215610fdc57600080fd5b5035919050565b6000815180845260005b8181101561100957602081850181015186830182015201610fed565b506000602082860101526020601f19601f83011685010191505092915050565b60a08152600061103c60a0830188610fe3565b60208301969096525092151560408401529015156060830152608090910152919050565b80356001600160a01b038116811461107757600080fd5b919050565b6000806040838503121561108f57600080fd5b8235915061109f60208401611060565b90509250929050565b600080604083850312156110bb57600080fd5b82359150602083013580151581146110d257600080fd5b809150509250929050565b60008083601f8401126110ef57600080fd5b50813567ffffffffffffffff81111561110757600080fd5b60208301915083602082850101111561111f57600080fd5b9250929050565b60008060006040848603121561113b57600080fd5b833567ffffffffffffffff81111561115257600080fd5b61115e868287016110dd565b909790965060209590950135949350505050565b6000806000806060858703121561118857600080fd5b8435935060208501359250604085013567ffffffffffffffff8111156111ad57600080fd5b6111b9878288016110dd565b95989497509550505050565b6000602082840312156111d757600080fd5b610ad182611060565b60208082526015908201527413585c9ad95d08191bd95cc81b9bdd08195e1a5cdd605a1b604082015260600190565b600181811c9082168061122357607f821691505b60208210810361124357634e487b7160e01b600052602260045260246000fd5b50919050565b60208082526021908201527f4f6e6c79206f776e65722063616e2063616c6c20746869732066756e6374696f6040820152603760f91b606082015260800190565b634e487b7160e01b600052601160045260246000fd5b6000600182016112b2576112b261128a565b5060010190565b80820180821115610ad457610ad461128a565b634e487b7160e01b600052604160045260246000fd5b601f82111561132e576000816000526020600020601f850160051c8101602086101561130b5750805b601f850160051c820191505b8181101561132a57828155600101611317565b5050505b505050565b815167ffffffffffffffff81111561134d5761134d6112cc565b6113618161135b845461120f565b846112e2565b602080601f831160018114611396576000841561137e5750858301515b600019600386901b1c1916600185901b17855561132a565b600085815260208120601f198616915b828110156113c5578886015182559484019460019091019084016113a6565b50858210156113e35787850151600019600388901b60f8161c191681555b5050505050600190811b01905550565b604081528260408201528284606083013760006060848301015260006060601f19601f8601168301019050826020830152949350505050565b6054811061144a57634e487b7160e01b600052602160045260246000fd5b9052565b8481526001600160a01b038416602082015260806040820181905260009061147890830185610fe3565b9050610f46606083018461142c565b60006020828403121561149957600080fd5b5051919050565b8281526040810161067b602083018461142c56fe9e7b61f58c47dc699ac88507c4f5bb9f121c03808c5676a8078fe583e46497019e7b61f58c47dc699ac88507c4f5bb9f121c03808c5676a8078fe583e4649700a2646970667358221220dc7e31196a43f2c502810d5fada2959c9e70d480a5acdbe56bcb71785f109d0564736f6c63430008180033",
  "linkReferences": {},
  "deployedLinkReferences": {}
}