{
  "_format": "hh-sol-artifact-1",
  "contractName": "ConfidentialMarket",
  "sourceName": "contracts/ConfidentialMarket.sol",
  "abi": [
    {
      "anonymous": false,
      "inputs": [
        {
          "indexed": true,
          "internalType": "uint256",
          "name": "marketId",
          "type": "uint256"
        },
        {
          "indexed": true,
          "internalType": "address",
          "name": "better",
          "type": "address"
        }
      ],
      "name": "BetPlaced",
      "type": "event"
    },
    {
      "inputs": [
        {
          "internalType": "uint256",
          "name": "marketId",
          "type": "uint256"
        }
      ],
      "name": "getMarket",
      "outputs": [
        {
          "internalType": "euint64",
          "name": "",
          "type": "uint256"
        },
        {
          "internalType": "euint64",
          "name": "",
          "type": "uint256"
        }
      ],
      "stateMutability": "view",
      "type": "function"
    },
    {
      "inputs": [
        {
          "internalType": "uint256",
          "name": "",
          "type": "uint256"
        }
      ],
      "name": "markets",
      "outputs": [
        {
          "internalType": "euint64",
          "name": "yesVotes",
          "type": "uint256"
        },
        {
          "internalType": "euint64",
          "name": "noVotes",
          "type": "uint256"
        }
      ],
      "stateMutability": "view",
      "type": "function"
    },
    {
      "inputs": [
        {
          "internalType": "uint256",
          "name": "marketId",
          "type": "uint256"
        },
        {
          "internalType": "einput",
          "name": "encryptedOption",
          "type": "bytes32"
        },
        {
          "internalType": "bytes",
          "name": "inputProof",
          "type": "bytes"
        }
      ],
      "name": "placeBet",
      "outputs": [],
      "stateMutability": "nonpayable",
      "type": "function"
    }
  ],
  "bytecode": "0x608060405234801561001057600080fd5b50610755806100206000396000f3fe608060405234801561001057600080fd5b50600436106100415760003560e01c80638c87e46414610046578063b1283e771461005b578063eb44fdd31461009b575b600080fd5b6100596100543660046105fa565b6100c3565b005b61008261006936600461067a565b6000602081905290815260409020805460019091015482565b6040805192835260208301919091520160405180910390f35b6100826100a936600461067a565b600090815260208190526040902080546001909101549091565b60006101058484848080601f0160208091040260200160405190810160405280939291908181526020018383808284376000920191909152506101d692505050565b9050600061011360016101eb565b9050600061012160006101eb565b90506000610140610131856101fe565b61013b60016101eb565b61020b565b9050600061015a610150866101fe565b61013b60006101eb565b60008a81526020819052604090208054919250906101829061017d85888861023d565b610252565b815560018101546101989061017d84888861023d565b600182015560405133908b907f71db8f0b94a6ae898ff1583920da121c8f18ea26ad96353276843685325262e190600090a350505050505050505050565b60006101e483836004610284565b9392505050565b60006101f8826005610380565b92915050565b60006101f882600561040e565b60008261021f5761021c60006101eb565b92505b816102315761022e60006101eb565b91505b6101e48383600061045d565b600061024a84848461050c565b949350505050565b6000826102665761026360006101eb565b92505b816102785761027560006101eb565b91505b6101e483836000610593565b6040516302e817ff60e41b81526000907305fd9b5efe0a996095f42ed7e77c390810cf660c90632e817ff0906102c89087903390889060f889901b90600401610693565b6020604051808303816000875af11580156102e7573d6000803e3d6000fd5b505050506040513d601f19601f8201168201806040525081019061030b9190610706565b6040516346ce4e4960e11b815260048101829052336024820152909150732fb4341027eb1d2ad8b5d9708187df8633cafa9290638d9c9c9290604401600060405180830381600087803b15801561036157600080fd5b505af1158015610375573d6000803e3d6000fd5b505050509392505050565b604051631ce2e8d760e31b8152600481018390526001600160f81b031960f883901b1660248201526000907305fd9b5efe0a996095f42ed7e77c390810cf660c9063e71746b8906044015b6020604051808303816000875af11580156103ea573d6000803e3d6000fd5b505050506040513d601f19601f820116820180604052508101906101e49190610706565b60405163025f346960e51b8152600481018390526001600160f81b031960f883901b1660248201526000907305fd9b5efe0a996095f42ed7e77c390810cf660c90634be68d20906044016103cb565b60008082156104715750600160f81b610475565b5060005b604051630d7c62eb60e31b815260048101869052602481018590526001600160f81b0319821660448201527305fd9b5efe0a996095f42ed7e77c390810cf660c90636be31758906064015b6020604051808303816000875af11580156104df573d6000803e3d6000fd5b505050506040513d601f19601f820116820180604052508101906105039190610706565b95945050505050565b60405163cb3b940760e01b81526004810184905260248101839052604481018290526000907305fd9b5efe0a996095f42ed7e77c390810cf660c9063cb3b9407906064016020604051808303816000875af115801561056f573d6000803e3d6000fd5b505050506040513d601f19601f8201168201806040525081019061024a9190610706565b60008082156105a75750600160f81b6105ab565b5060005b60405163f953e42760e01b815260048101869052602481018590526001600160f81b0319821660448201527305fd9b5efe0a996095f42ed7e77c390810cf660c9063f953e427906064016104c0565b6000806000806060858703121561061057600080fd5b8435935060208501359250604085013567ffffffffffffffff8082111561063657600080fd5b818701915087601f83011261064a57600080fd5b81358181111561065957600080fd5b88602082850101111561066b57600080fd5b95989497505060200194505050565b60006020828403121561068c57600080fd5b5035919050565b8481526000602060018060a01b038616602084015260806040840152845180608085015260005b818110156106d65786810183015185820160a0015282016106ba565b50600060a0828601015260a0601f19601f8301168501019250505060ff60f81b8316606083015295945050505050565b60006020828403121561071857600080fd5b505191905056fea2646970667358221220c373424ceb5c1c4a46f0c0074e1489d8c055e251ab7306c5f9150ffc9c6ef17e64736f6c63430008180033",
  "linkReferences": {},
  "deployedLinkReferences": {}
}