{
  "_format": "hh-sol-artifact-1",
  "contractName": "MetricsHub",
  "sourceName": "contracts/test.sol",
  "abi": [
    {
      "anonymous": false,
      "inputs": [
        {
          "indexed": true,
          "internalType": "uint32",
          "name": "src",
          "type": "uint32"
        },
        {
          "indexed": true,
          "internalType": "uint32",
          "name": "dst",
          "type": "uint32"
        }
      ],
      "name": "PublicReady",
      "type": "event"
    },
    {
      "anonymous": false,
      "inputs": [
        {
          "indexed": true,
          "internalType": "uint32",
          "name": "src",
          "type": "uint32"
        },
        {
          "indexed": true,
          "internalType": "uint32",
          "name": "dst",
          "type": "uint32"
        },
        {
          "indexed": true,
          "internalType": "address",
          "name": "user",
          "type": "address"
        },
        {
          "indexed": false,
          "internalType": "uint256",
          "name": "idx",
          "type": "uint256"
        },
        {
          "indexed": false,
          "internalType": "bytes32",
          "name": "originTx",
          "type": "bytes32"
        }
      ],
      "name": "Recorded",
      "type": "event"
    },
    {
      "inputs": [
        {
          "internalType": "uint32",
          "name": "srcChainId",
          "type": "uint32"
        },
        {
          "internalType": "uint32",
          "name": "dstChainId",
          "type": "uint32"
        },
        {
          "internalType": "uint256",
          "name": "start",
          "type": "uint256"
        },
        {
          "internalType": "uint256",
          "name": "count",
          "type": "uint256"
        }
      ],
      "name": "getMyHistory",
      "outputs": [
        {
          "internalType": "euint128[]",
          "name": "amounts",
          "type": "bytes32[]"
        },
        {
          "internalType": "uint64[]",
          "name": "timestamps",
          "type": "uint64[]"
        }
      ],
      "stateMutability": "view",
      "type": "function"
    },
    {
      "inputs": [
        {
          "internalType": "uint32",
          "name": "srcChainId",
          "type": "uint32"
        },
        {
          "internalType": "uint32",
          "name": "dstChainId",
          "type": "uint32"
        }
      ],
      "name": "getPublicSnapshots",
      "outputs": [
        {
          "internalType": "euint128",
          "name": "",
          "type": "bytes32"
        },
        {
          "internalType": "euint64",
          "name": "",
          "type": "bytes32"
        }
      ],
      "stateMutability": "view",
      "type": "function"
    },
    {
      "inputs": [
        {
          "internalType": "uint32",
          "name": "srcChainId",
          "type": "uint32"
        },
        {
          "internalType": "uint32",
          "name": "dstChainId",
          "type": "uint32"
        }
      ],
      "name": "getTotals",
      "outputs": [
        {
          "internalType": "euint128",
          "name": "",
          "type": "bytes32"
        },
        {
          "internalType": "euint64",
          "name": "",
          "type": "bytes32"
        }
      ],
      "stateMutability": "view",
      "type": "function"
    },
    {
      "inputs": [
        {
          "internalType": "uint32",
          "name": "srcChainId",
          "type": "uint32"
        },
        {
          "internalType": "uint32",
          "name": "dstChainId",
          "type": "uint32"
        },
        {
          "internalType": "uint256[]",
          "name": "idxs",
          "type": "uint256[]"
        }
      ],
      "name": "grantMyHistory",
      "outputs": [],
      "stateMutability": "nonpayable",
      "type": "function"
    },
    {
      "inputs": [
        {
          "internalType": "uint32",
          "name": "srcChainId",
          "type": "uint32"
        },
        {
          "internalType": "uint32",
          "name": "dstChainId",
          "type": "uint32"
        },
        {
          "internalType": "uint256",
          "name": "start",
          "type": "uint256"
        },
        {
          "internalType": "uint256",
          "name": "endExclusive",
          "type": "uint256"
        }
      ],
      "name": "grantMyHistoryRange",
      "outputs": [],
      "stateMutability": "nonpayable",
      "type": "function"
    },
    {
      "inputs": [
        {
          "internalType": "uint32",
          "name": "srcChainId",
          "type": "uint32"
        },
        {
          "internalType": "uint32",
          "name": "dstChainId",
          "type": "uint32"
        }
      ],
      "name": "myHistoryLength",
      "outputs": [
        {
          "internalType": "uint256",
          "name": "",
          "type": "uint256"
        }
      ],
      "stateMutability": "view",
      "type": "function"
    },
    {
      "inputs": [],
      "name": "protocolId",
      "outputs": [
        {
          "internalType": "uint256",
          "name": "",
          "type": "uint256"
        }
      ],
      "stateMutability": "pure",
      "type": "function"
    },
    {
      "inputs": [
        {
          "internalType": "uint32",
          "name": "srcChainId",
          "type": "uint32"
        },
        {
          "internalType": "uint32",
          "name": "dstChainId",
          "type": "uint32"
        },
        {
          "internalType": "uint64",
          "name": "kThreshold",
          "type": "uint64"
        }
      ],
      "name": "publish",
      "outputs": [],
      "stateMutability": "nonpayable",
      "type": "function"
    },
    {
      "inputs": [
        {
          "internalType": "uint32",
          "name": "srcChainId",
          "type": "uint32"
        },
        {
          "internalType": "uint32",
          "name": "dstChainId",
          "type": "uint32"
        },
        {
          "internalType": "externalEuint128",
          "name": "amountWeiExt",
          "type": "bytes32"
        },
        {
          "internalType": "bytes",
          "name": "inputProof",
          "type": "bytes"
        },
        {
          "internalType": "bytes32",
          "name": "originTxHash",
          "type": "bytes32"
        }
      ],
      "name": "record",
      "outputs": [],
      "stateMutability": "nonpayable",
      "type": "function"
    },
    {
      "inputs": [],
      "name": "version",
      "outputs": [
        {
          "internalType": "string",
          "name": "",
          "type": "string"
        }
      ],
      "stateMutability": "pure",
      "type": "function"
    }
  ],
  "bytecode": "0x608060405234801561001057600080fd5b5061018c6100b0604080516080810182526000808252602082018190529181018290526060810191909152506040805160808101825273687820221192c5b662b25367f70076a37bc79b6c815273848b0066793bcc60346da1f49049357399b8d595602082015273a02cda4ca3a71d7c46997716f4283aa851c2881291810191909152731364cbbf2cdf5032c47d8226a6f6fbd2afcdacac606082015290565b80517f9e7b61f58c47dc699ac88507c4f5bb9f121c03808c5676a8078fe583e464970080546001600160a01b03199081166001600160a01b039384161790915560208301517f9e7b61f58c47dc699ac88507c4f5bb9f121c03808c5676a8078fe583e46497018054831691841691909117905560408301517f9e7b61f58c47dc699ac88507c4f5bb9f121c03808c5676a8078fe583e46497028054831691841691909117905560608301517f9e7b61f58c47dc699ac88507c4f5bb9f121c03808c5676a8078fe583e46497038054909216921691909117905550565b61172f8061019b6000396000f3fe608060405234801561001057600080fd5b506004361061009e5760003560e01c8063b22f812c11610066578063b22f812c1461014c578063da1f12ab14610188578063e41e6c901461019a578063ea6c3d59146101ad578063eceea2fc146101c057600080fd5b80630a3ad1a1146100a357806354fd4d50146100fc5780635652579e14610111578063575845eb14610126578063993ce90914610139575b600080fd5b6100e26100b1366004611268565b63ffffffff16602091821b63ffffffff60201b16176000908152908190526040902060028101546003909101549091565b604080519283526020830191909152015b60405180910390f35b6101046101e1565b6040516100f391906112e1565b61012461011f3660046112f4565b610201565b005b610124610134366004611384565b6102fe565b610124610147366004611429565b6106ef565b6100e261015a366004611268565b63ffffffff16602091821b63ffffffff60201b16176000908152908190526040902080546001909101549091565b6127115b6040519081526020016100f3565b61018c6101a8366004611268565b610953565b6101246101bb36600461147c565b610989565b6101d36101ce36600461147c565b610a3d565b6040516100f39291906114be565b60606040518060600160405280602381526020016116b760239139905090565b63ffffffff8316602085811b63ffffffff60201b16919091176000818152600183526040808220338352909352918220805491929091905b848110156102f457600086868381811061025557610255611542565b90506020020135905082811061029e5760405162461bcd60e51b81526020600482015260096024820152680c4c2c840d2dcc8caf60bb1b60448201526064015b60405180910390fd5b6102c38482815481106102b3576102b3611542565b9060005260206000200154610c34565b506102ea8482815481106102d9576102d9611542565b906000526020600020015433610c44565b5050600101610239565b5050505050505050565b63ffffffff8516602087811b63ffffffff60201b169190911760008181529182905260409091206004015460ff1661045c5761033a6000610c57565b6001600160401b03821660009081526020819052604081209190915561035f90610c76565b6001600160401b03821660009081526020819052604081206001019190915561038790610c57565b6001600160401b0382166000908152602081905260408120600201919091556103af90610c76565b6001600160401b0382166000908152602081905260409020600381019190915560048101805460ff19166001179055546103e890610c34565b506001600160401b03811660009081526020819052604090206001015461040e90610c34565b506001600160401b03811660009081526020819052604090206002015461043490610c34565b506001600160401b03811660009081526020819052604090206003015461045a90610c34565b505b600061049e8686868080601f016020809104026020016040519081016040528093929190818152602001838380828437600092019190915250610c8c92505050565b6001600160401b0383166000908152602081905260409020549091506104c49082610ca1565b6001600160401b03831660009081526020819052604090209081556001908101546104f7916104f290610c76565b610cd3565b6001600160401b038316600090815260208190526040902060018101919091555461052190610c34565b506001600160401b03821660009081526020819052604090206001015461054790610c34565b506001600160401b0380831660008181526001602081815260408084203380865281845282862080548087018255818852858820018a90559686526002845282862081875284529185208054808601825590865283862060048204018054428a1660086003909416939093026101000a928302929099021990981617909655835293909352905490916105d99161156e565b6001600160401b03841660009081526001602090815260408083203384529091529020805491925061061591839081106102b3576102b3611542565b506001600160401b0383166000908152600160209081526040808320338452909152902080546106509190839081106102d9576102d9611542565b506001600160401b0383166000908152602081905260409020546106749033610c44565b506001600160401b03831660009081526020819052604090206001015461069b9033610c44565b506040805182815260208101869052339163ffffffff808c1692908d16917f1146a57321233734a8a1e14179b9670f96db6dc05acdf29f70c1eb74bc62022c910160405180910390a4505050505050505050565b63ffffffff8216602084811b63ffffffff60201b169190911760008181529182905260409091206004015460ff166107605760405162461bcd60e51b81526020600482015260146024820152731c185a5c881b9bdd081a5b9a5d1a585b1a5e995960621b6044820152606401610295565b6001600160401b03811660009081526020819052604081206001015461078e9061078985610c76565b610cf6565b6001600160401b0383166000908152602081905260408120805460029091015492935090916107bd9190610d28565b6001600160401b0384166000908152602081905260408120600181015460039091015492935090916107ef9190610d5a565b9050610835600080866001600160401b03166001600160401b0316815260200190815260200160002060020154610830858561082b6000610c57565b610d7d565b610ca1565b6001600160401b03851660009081526020819052604081206002810192909255600390910154610870916104f2908690859061082b90610c76565b6001600160401b038516600090815260208190526040902060038101919091556002015461089d90610d92565b506001600160401b0384166000908152602081905260409020600301546108c390610d92565b506001600160401b0384166000908152602081905260409020600201546108e990610c34565b506001600160401b03841660009081526020819052604090206003015461090f90610c34565b508563ffffffff168763ffffffff167f10b3b81a43894f7723c9fb777870baaad9c669556f5ca03ca7a1fb37becf0a3960405160405180910390a350505050505050565b63ffffffff8116602083811b63ffffffff60201b1691909117600090815260018252604080822033835290925220545b92915050565b63ffffffff8316602085811b63ffffffff60201b16919091176000818152600183526040808220338352909352919091208054808411156109c8578093505b8385106109ff5760405162461bcd60e51b8152602060048201526005602482015264656d70747960d81b6044820152606401610295565b845b848110156102f457610a1e8382815481106102b3576102b3611542565b50610a348382815481106102d9576102d9611542565b50600101610a01565b63ffffffff8316602085811b63ffffffff60201b169190911760008181526001835260408082203380845290855281832084845260028652828420918452945290208254606093849392909180881115610a95578097505b60c8871115610aa35760c896505b6000610aaf888a611581565b905081811115610abc5750805b6000898211610acc576000610ad6565b610ad68a8361156e565b9050806001600160401b03811115610af057610af0611594565b604051908082528060200260200182016040528015610b19578160200160208202803683370190505b509750806001600160401b03811115610b3457610b34611594565b604051908082528060200260200182016040528015610b5d578160200160208202803683370190505b50965060005b81811015610c245785610b76828d611581565b81548110610b8657610b86611542565b9060005260206000200154898281518110610ba357610ba3611542565b602090810291909101015284610bb9828d611581565b81548110610bc957610bc9611542565b90600052602060002090600491828204019190066008029054906101000a90046001600160401b0316888281518110610c0457610c04611542565b6001600160401b0390921660209283029190910190910152600101610b63565b5050505050505094509492505050565b6000610c408230610d9d565b5090565b6000610c508383610d9d565b5090919050565b6000610983826fffffffffffffffffffffffffffffffff166006610e17565b6000610983826001600160401b03166005610e17565b6000610c9a83836006610eac565b9392505050565b600082610cb557610cb26000610c57565b92505b81610cc757610cc46000610c57565b91505b610c9a83836000610fb1565b600082610ce757610ce46000610c76565b92505b81610cc757610cc46000610c76565b600082610d0a57610d076000610c76565b92505b81610d1c57610d196000610c76565b91505b610c9a83836000611065565b600082610d3c57610d396000610c57565b92505b81610d4e57610d4b6000610c57565b91505b610c9a838360006110cc565b600082610d6e57610d6b6000610c76565b92505b81610d4e57610d4b6000610c76565b6000610d8a848484611133565b949350505050565b6000610c40826111ce565b6000805160206116da8339815191528054604051635ca4b5b160e11b8152600481018590526001600160a01b0384811660248301529091169063b9496b62906044015b600060405180830381600087803b158015610dfa57600080fd5b505af1158015610e0e573d6000803e3d6000fd5b50505050505050565b60008051602061169783398151915254604051639cd07acb60e01b81526000916000805160206116da833981519152916001600160a01b0390911690639cd07acb90610e6990879087906004016115cc565b6020604051808303816000875af1158015610e88573d6000803e3d6000fd5b505050506040513d601f19601f82011682018060405250810190610d8a91906115e0565b6000805160206116978339815191525460405163196d0b9b60e01b81526000916000805160206116da833981519152916001600160a01b039091169063196d0b9b90610f029088903390899089906004016115f9565b6020604051808303816000875af1158015610f21573d6000803e3d6000fd5b505050506040513d601f19601f82011682018060405250810190610f4591906115e0565b8154604051630f8e573b60e21b8152600481018390523360248201529193506001600160a01b031690633e395cec90604401600060405180830381600087803b158015610f9157600080fd5b505af1158015610fa5573d6000803e3d6000fd5b50505050509392505050565b6000808215610fc55750600160f81b610fc9565b5060005b6000805160206116978339815191525460405163022f65e760e31b81526000805160206116da833981519152916001600160a01b03169063117b2f389061101890899089908790600401611632565b6020604051808303816000875af1158015611037573d6000803e3d6000fd5b505050506040513d601f19601f8201168201806040525081019061105b91906115e0565b9695505050505050565b60008082156110795750600160f81b61107d565b5060005b60008051602061169783398151915254604051631391547f60e01b81526000805160206116da833981519152916001600160a01b031690631391547f9061101890899089908790600401611632565b60008082156110e05750600160f81b6110e4565b5060005b600080516020611697833981519152546040516303056db360e31b81526000805160206116da833981519152916001600160a01b03169063182b6d989061101890899089908790600401611632565b6000806000805160206116da8339815191526001810154604051637702dcff60e01b81526004810188905260248101879052604481018690529192506001600160a01b031690637702dcff906064016020604051808303816000875af11580156111a1573d6000803e3d6000fd5b505050506040513d601f19601f820116820180604052508101906111c591906115e0565b95945050505050565b6040805160018082528183019092526000805160206116da833981519152916000919060208083019080368337019050509050828160008151811061121557611215611542565b60209081029190910101528154604051637d6e912360e11b81526001600160a01b039091169063fadd224690610de0908490600401611652565b803563ffffffff8116811461126357600080fd5b919050565b6000806040838503121561127b57600080fd5b6112848361124f565b91506112926020840161124f565b90509250929050565b6000815180845260005b818110156112c1576020818501810151868301820152016112a5565b506000602082860101526020601f19601f83011685010191505092915050565b602081526000610c9a602083018461129b565b6000806000806060858703121561130a57600080fd5b6113138561124f565b93506113216020860161124f565b925060408501356001600160401b038082111561133d57600080fd5b818701915087601f83011261135157600080fd5b81358181111561136057600080fd5b8860208260051b850101111561137557600080fd5b95989497505060200194505050565b60008060008060008060a0878903121561139d57600080fd5b6113a68761124f565b95506113b46020880161124f565b94506040870135935060608701356001600160401b03808211156113d757600080fd5b818901915089601f8301126113eb57600080fd5b8135818111156113fa57600080fd5b8a602082850101111561140c57600080fd5b602083019550809450505050608087013590509295509295509295565b60008060006060848603121561143e57600080fd5b6114478461124f565b92506114556020850161124f565b915060408401356001600160401b038116811461147157600080fd5b809150509250925092565b6000806000806080858703121561149257600080fd5b61149b8561124f565b93506114a96020860161124f565b93969395505050506040820135916060013590565b604080825283519082018190526000906020906060840190828701845b828110156114f7578151845292840192908401906001016114db565b5050508381038285015284518082528583019183019060005b818110156115355783516001600160401b031683529284019291840191600101611510565b5090979650505050505050565b634e487b7160e01b600052603260045260246000fd5b634e487b7160e01b600052601160045260246000fd5b8181038181111561098357610983611558565b8082018082111561098357610983611558565b634e487b7160e01b600052604160045260246000fd5b605481106115c857634e487b7160e01b600052602160045260246000fd5b9052565b82815260408101610c9a60208301846115aa565b6000602082840312156115f257600080fd5b5051919050565b8481526001600160a01b03841660208201526080604082018190526000906116239083018561129b565b90506111c560608301846115aa565b92835260208301919091526001600160f81b031916604082015260600190565b6020808252825182820181905260009190848201906040850190845b8181101561168a5783518352928401929184019160010161166e565b5090969550505050505056fe9e7b61f58c47dc699ac88507c4f5bb9f121c03808c5676a8078fe583e46497016d6574726963732d6875622f312e332e312d686973746f72792d616c6c6f77746869739e7b61f58c47dc699ac88507c4f5bb9f121c03808c5676a8078fe583e4649700a2646970667358221220975b0028fa6a54e028fb9d5d0b2e2ad2c4a09b9edec07a6569145fe01c7a561964736f6c63430008180033",
  "linkReferences": {},
  "deployedLinkReferences": {}
}